:020000020000FC
:040000000C9422003A
:04000C000C947A00D6
:100040000C949D000FEF0DBF18E01EBF00E800E804
:100050000093610001E00093610003E005B90CE04A
:1000600004B90FEB07B90FEF0AB903E000936B0077
:1000700001E000936800789440E050E060E070E0B8
:100080000E9493001B9A6A3039F1723349F10E9441
:100090005F001A9A1B9AF1E0E0E5E50F94919BB995
:1000A0000E945F001A9A1B9AF1E0E0E5E60F949136
:1000B0009BB90E945F005630B9F048B9E4CF3FEFDA
:1000C0003A95F1F73FEF3A95F1F73FEF3A95F1F7AF
:1000D0003FEF3A95F1F7089560E053950C94430093
:1000E000639570E00C9443000E945F0050E060E074
:1000F0000C9443000F930FB70F9323B120FD0C9482
:1001000087004395403149F440E00C948D0021FD77
:100110000C948D004A9509F44FE01D9AD89A0F91DE
:100120000FBF0F911895A0E0A4BDA5E0A5BDA4E662
:10013000A6BDA1E0A0936E0008950F930FB70F9393
:1001400004E606BDA89A73950F910FBF0F911895FD
:0A0150007E0CB69ECCDAFA0EFEDE3D
:00000001FF
